{
  "_format": "hh-sol-artifact-1",
  "contractName": "CrowdFunding",
  "sourceName": "contracts/CrowdFunding.sol",
  "abi": [
    {
      "inputs": [
        {
          "internalType": "uint256",
          "name": "",
          "type": "uint256"
        }
      ],
      "name": "campaigns",
      "outputs": [
        {
          "internalType": "address",
          "name": "owner",
          "type": "address"
        },
        {
          "internalType": "string",
          "name": "title",
          "type": "string"
        },
        {
          "internalType": "string",
          "name": "description",
          "type": "string"
        },
        {
          "internalType": "uint256",
          "name": "target",
          "type": "uint256"
        },
        {
          "internalType": "uint256",
          "name": "deadline",
          "type": "uint256"
        },
        {
          "internalType": "uint256",
          "name": "amountCollected",
          "type": "uint256"
        }
      ],
      "stateMutability": "view",
      "type": "function"
    },
    {
      "inputs": [
        {
          "internalType": "address",
          "name": "_owner",
          "type": "address"
        },
        {
          "internalType": "string",
          "name": "_title",
          "type": "string"
        },
        {
          "internalType": "string",
          "name": "_description",
          "type": "string"
        },
        {
          "internalType": "uint256",
          "name": "_target",
          "type": "uint256"
        },
        {
          "internalType": "uint256",
          "name": "_deadline",
          "type": "uint256"
        }
      ],
      "name": "createCampaign",
      "outputs": [
        {
          "internalType": "uint256",
          "name": "",
          "type": "uint256"
        }
      ],
      "stateMutability": "nonpayable",
      "type": "function"
    },
    {
      "inputs": [
        {
          "internalType": "uint256",
          "name": "_id",
          "type": "uint256"
        }
      ],
      "name": "donateToCampaign",
      "outputs": [],
      "stateMutability": "payable",
      "type": "function"
    },
    {
      "inputs": [],
      "name": "getCampaign",
      "outputs": [
        {
          "components": [
            {
              "internalType": "address",
              "name": "owner",
              "type": "address"
            },
            {
              "internalType": "string",
              "name": "title",
              "type": "string"
            },
            {
              "internalType": "string",
              "name": "description",
              "type": "string"
            },
            {
              "internalType": "uint256",
              "name": "target",
              "type": "uint256"
            },
            {
              "internalType": "uint256",
              "name": "deadline",
              "type": "uint256"
            },
            {
              "internalType": "uint256",
              "name": "amountCollected",
              "type": "uint256"
            },
            {
              "internalType": "address[]",
              "name": "donators",
              "type": "address[]"
            },
            {
              "internalType": "uint256[]",
              "name": "donations",
              "type": "uint256[]"
            }
          ],
          "internalType": "struct CrowdFunding.Campaign[]",
          "name": "",
          "type": "tuple[]"
        }
      ],
      "stateMutability": "view",
      "type": "function"
    },
    {
      "inputs": [
        {
          "internalType": "uint256",
          "name": "_id",
          "type": "uint256"
        }
      ],
      "name": "getDonator",
      "outputs": [
        {
          "internalType": "address[]",
          "name": "",
          "type": "address[]"
        },
        {
          "internalType": "uint256[]",
          "name": "",
          "type": "uint256[]"
        }
      ],
      "stateMutability": "view",
      "type": "function"
    },
    {
      "inputs": [],
      "name": "numberOfCampaigns",
      "outputs": [
        {
          "internalType": "uint256",
          "name": "",
          "type": "uint256"
        }
      ],
      "stateMutability": "view",
      "type": "function"
    }
  ],
  "bytecode": "0x6080604052600060015534801561001557600080fd5b5061176b806100256000396000f3fe6080604052600436106100555760003560e01c8063075843c31461005a57806307ca140d14610097578063141961bc146100c2578063236b8e3a1461010457806342a4fda81461012f5780637b66e17f1461014b575b600080fd5b34801561006657600080fd5b50610081600480360381019061007c9190610c0c565b610189565b60405161008e9190610cce565b60405180910390f35b3480156100a357600080fd5b506100ac61029d565b6040516100b99190610cce565b60405180910390f35b3480156100ce57600080fd5b506100e960048036038101906100e49190610ce9565b6102a3565b6040516100fb96959493929190610da4565b60405180910390f35b34801561011057600080fd5b5061011961040f565b6040516101269190611160565b60405180910390f35b61014960048036038101906101449190610ce9565b610753565b005b34801561015757600080fd5b50610172600480360381019061016d9190610ce9565b6108b3565b604051610180929190611260565b60405180910390f35b60008060008060015481526020019081526020016000209050428160040154106101e8576040517f08c379a00000000000000000000000000000000000000000000000000000000081526004016101df906112e3565b60405180910390fd5b868160000160006101000a81548173ffffffffffffffffffffffffffffffffffffffff021916908373ffffffffffffffffffffffffffffffffffffffff1602179055508581600101908161023c919061150f565b508481600201908161024e919061150f565b50838160030181905550828160040181905550600081600501819055506001600081548092919061027e90611610565b9190505550600180546102919190611658565b91505095945050505050565b60015481565b60006020528060005260406000206000915090508060000160009054906101000a900473ffffffffffffffffffffffffffffffffffffffff16908060010180546102ec90611332565b80601f016020809104026020016040519081016040528092919081815260200182805461031890611332565b80156103655780601f1061033a57610100808354040283529160200191610365565b820191906000526020600020905b81548152906001019060200180831161034857829003601f168201915b50505050509080600201805461037a90611332565b80601f01602080910402602001604051908101604052809291908181526020018280546103a690611332565b80156103f35780601f106103c8576101008083540402835291602001916103f3565b820191906000526020600020905b8154815290600101906020018083116103d657829003601f168201915b5050505050908060030154908060040154908060050154905086565b6060600060015467ffffffffffffffff81111561042f5761042e610aab565b5b60405190808252806020026020018201604052801561046857816020015b6104556109c3565b81526020019060019003908161044d5790505b50905060005b60015481101561074b576000806000838152602001908152602001600020905080604051806101000160405290816000820160009054906101000a900473ffffffffffffffffffffffffffffffffffffffff1673ffffffffffffffffffffffffffffffffffffffff1673ffffffffffffffffffffffffffffffffffffffff16815260200160018201805461050190611332565b80601f016020809104026020016040519081016040528092919081815260200182805461052d90611332565b801561057a5780601f1061054f5761010080835404028352916020019161057a565b820191906000526020600020905b81548152906001019060200180831161055d57829003601f168201915b5050505050815260200160028201805461059390611332565b80601f01602080910402602001604051908101604052809291908181526020018280546105bf90611332565b801561060c5780601f106105e15761010080835404028352916020019161060c565b820191906000526020600020905b8154815290600101906020018083116105ef57829003601f168201915b50505050508152602001600382015481526020016004820154815260200160058201548152602001600682018054806020026020016040519081016040528092919081815260200182805480156106b857602002820191906000526020600020905b8160009054906101000a900473ffffffffffffffffffffffffffffffffffffffff1673ffffffffffffffffffffffffffffffffffffffff168152602001906001019080831161066e575b505050505081526020016007820180548060200260200160405190810160405280929190818152602001828054801561071057602002820191906000526020600020905b8154815260200190600101908083116106fc575b50505050508152505083838151811061072c5761072b61168c565b5b602002602001018190525050808061074390611610565b91505061046e565b508091505090565b60003490506000806000848152602001908152602001600020905080600601339080600181540180825580915050600190039060005260206000200160009091909190916101000a81548173ffffffffffffffffffffffffffffffffffffffff021916908373ffffffffffffffffffffffffffffffffffffffff1602179055508060070182908060018154018082558091505060019003906000526020600020016000909190919091505560008160000160009054906101000a900473ffffffffffffffffffffffffffffffffffffffff1673ffffffffffffffffffffffffffffffffffffffff1683604051610848906116ec565b60006040518083038185875af1925050503d8060008114610885576040519150601f19603f3d011682016040523d82523d6000602084013e61088a565b606091505b5050905080156108ad578282600501546108a49190611701565b82600501819055505b50505050565b6060806000808481526020019081526020016000206006016000808581526020019081526020016000206007018180548060200260200160405190810160405280929190818152602001828054801561096157602002820191906000526020600020905b8160009054906101000a900473ffffffffffffffffffffffffffffffffffffffff1673ffffffffffffffffffffffffffffffffffffffff1681526020019060010190808311610917575b50505050509150808054806020026020016040519081016040528092919081815260200182805480156109b357602002820191906000526020600020905b81548152602001906001019080831161099f575b5050505050905091509150915091565b604051806101000160405280600073ffffffffffffffffffffffffffffffffffffffff168152602001606081526020016060815260200160008152602001600081526020016000815260200160608152602001606081525090565b6000604051905090565b600080fd5b600080fd5b600073ffffffffffffffffffffffffffffffffffffffff82169050919050565b6000610a5d82610a32565b9050919050565b610a6d81610a52565b8114610a7857600080fd5b50565b600081359050610a8a81610a64565b92915050565b600080fd5b600080fd5b6000601f19601f8301169050919050565b7f4e487b7100000000000000000000000000000000000000000000000000000000600052604160045260246000fd5b610ae382610a9a565b810181811067ffffffffffffffff82111715610b0257610b01610aab565b5b80604052505050565b6000610b15610a1e565b9050610b218282610ada565b919050565b600067ffffffffffffffff821115610b4157610b40610aab565b5b610b4a82610a9a565b9050602081019050919050565b82818337600083830152505050565b6000610b79610b7484610b26565b610b0b565b905082815260208101848484011115610b9557610b94610a95565b5b610ba0848285610b57565b509392505050565b600082601f830112610bbd57610bbc610a90565b5b8135610bcd848260208601610b66565b91505092915050565b6000819050919050565b610be981610bd6565b8114610bf457600080fd5b50565b600081359050610c0681610be0565b92915050565b600080600080600060a08688031215610c2857610c27610a28565b5b6000610c3688828901610a7b565b955050602086013567ffffffffffffffff811115610c5757610c56610a2d565b5b610c6388828901610ba8565b945050604086013567ffffffffffffffff811115610c8457610c83610a2d565b5b610c9088828901610ba8565b9350506060610ca188828901610bf7565b9250506080610cb288828901610bf7565b9150509295509295909350565b610cc881610bd6565b82525050565b6000602082019050610ce36000830184610cbf565b92915050565b600060208284031215610cff57610cfe610a28565b5b6000610d0d84828501610bf7565b91505092915050565b610d1f81610a52565b82525050565b600081519050919050565b600082825260208201905092915050565b60005b83811015610d5f578082015181840152602081019050610d44565b60008484015250505050565b6000610d7682610d25565b610d808185610d30565b9350610d90818560208601610d41565b610d9981610a9a565b840191505092915050565b600060c082019050610db96000830189610d16565b8181036020830152610dcb8188610d6b565b90508181036040830152610ddf8187610d6b565b9050610dee6060830186610cbf565b610dfb6080830185610cbf565b610e0860a0830184610cbf565b979650505050505050565b600081519050919050565b600082825260208201905092915050565b6000819050602082019050919050565b610e4881610a52565b82525050565b600082825260208201905092915050565b6000610e6a82610d25565b610e748185610e4e565b9350610e84818560208601610d41565b610e8d81610a9a565b840191505092915050565b610ea181610bd6565b82525050565b600081519050919050565b600082825260208201905092915050565b6000819050602082019050919050565b6000610edf8383610e3f565b60208301905092915050565b6000602082019050919050565b6000610f0382610ea7565b610f0d8185610eb2565b9350610f1883610ec3565b8060005b83811015610f49578151610f308882610ed3565b9750610f3b83610eeb565b925050600181019050610f1c565b5085935050505092915050565b600081519050919050565b600082825260208201905092915050565b6000819050602082019050919050565b6000610f8e8383610e98565b60208301905092915050565b6000602082019050919050565b6000610fb282610f56565b610fbc8185610f61565b9350610fc783610f72565b8060005b83811015610ff8578151610fdf8882610f82565b9750610fea83610f9a565b925050600181019050610fcb565b5085935050505092915050565b60006101008301600083015161101e6000860182610e3f565b50602083015184820360208601526110368282610e5f565b915050604083015184820360408601526110508282610e5f565b91505060608301516110656060860182610e98565b5060808301516110786080860182610e98565b5060a083015161108b60a0860182610e98565b5060c083015184820360c08601526110a38282610ef8565b91505060e083015184820360e08601526110bd8282610fa7565b9150508091505092915050565b60006110d68383611005565b905092915050565b6000602082019050919050565b60006110f682610e13565b6111008185610e1e565b93508360208202850161111285610e2f565b8060005b8581101561114e578484038952815161112f85826110ca565b945061113a836110de565b925060208a01995050600181019050611116565b50829750879550505050505092915050565b6000602082019050818103600083015261117a81846110eb565b905092915050565b600082825260208201905092915050565b600061119e82610ea7565b6111a88185611182565b93506111b383610ec3565b8060005b838110156111e45781516111cb8882610ed3565b97506111d683610eeb565b9250506001810190506111b7565b5085935050505092915050565b600082825260208201905092915050565b600061120d82610f56565b61121781856111f1565b935061122283610f72565b8060005b8381101561125357815161123a8882610f82565b975061124583610f9a565b925050600181019050611226565b5085935050505092915050565b6000604082019050818103600083015261127a8185611193565b9050818103602083015261128e8184611202565b90509392505050565b7f446561646c696e652073686f756c6420626520696e2066757475726500000000600082015250565b60006112cd601c83610d30565b91506112d882611297565b602082019050919050565b600060208201905081810360008301526112fc816112c0565b9050919050565b7f4e487b7100000000000000000000000000000000000000000000000000000000600052602260045260246000fd5b6000600282049050600182168061134a57607f821691505b60208210810361135d5761135c611303565b5b50919050565b60008190508160005260206000209050919050565b60006020601f8301049050919050565b600082821b905092915050565b6000600883026113c57fffffffffffffffffffffffffffffffffffffffffffffffffffffffffffffffff82611388565b6113cf8683611388565b95508019841693508086168417925050509392505050565b6000819050919050565b600061140c61140761140284610bd6565b6113e7565b610bd6565b9050919050565b6000819050919050565b611426836113f1565b61143a61143282611413565b848454611395565b825550505050565b600090565b61144f611442565b61145a81848461141d565b505050565b5b8181101561147e57611473600082611447565b600181019050611460565b5050565b601f8211156114c35761149481611363565b61149d84611378565b810160208510156114ac578190505b6114c06114b885611378565b83018261145f565b50505b505050565b600082821c905092915050565b60006114e6600019846008026114c8565b1980831691505092915050565b60006114ff83836114d5565b9150826002028217905092915050565b61151882610d25565b67ffffffffffffffff81111561153157611530610aab565b5b61153b8254611332565b611546828285611482565b600060209050601f8311600181146115795760008415611567578287015190505b61157185826114f3565b8655506115d9565b601f19841661158786611363565b60005b828110156115af5784890151825560018201915060208501945060208101905061158a565b868310156115cc57848901516115c8601f8916826114d5565b8355505b6001600288020188555050505b505050505050565b7f4e487b7100000000000000000000000000000000000000000000000000000000600052601160045260246000fd5b600061161b82610bd6565b91507fffffffffffffffffffffffffffffffffffffffffffffffffffffffffffffffff820361164d5761164c6115e1565b5b600182019050919050565b600061166382610bd6565b915061166e83610bd6565b9250828203905081811115611686576116856115e1565b5b92915050565b7f4e487b7100000000000000000000000000000000000000000000000000000000600052603260045260246000fd5b600081905092915050565b50565b60006116d66000836116bb565b91506116e1826116c6565b600082019050919050565b60006116f7826116c9565b9150819050919050565b600061170c82610bd6565b915061171783610bd6565b925082820190508082111561172f5761172e6115e1565b5b9291505056fea2646970667358221220ebc682a630bb98876ee1bb0a90cb9a4be4645b5a8fe509cd27a6ea82cbbcc55c64736f6c63430008120033",
  "linkReferences": {},
  "deployedLinkReferences": {}
}